:03000000020F4D9F
:0C0F4D00787FE4F6D8FD758120020F9437
:03004300020E00AA
:03005300020E009A
:100E0000020050000200500002005000020050009A
:100E1000020050000200500002005000020050008A
:100E2000020050000200500002005000020050007A
:100E3000020050000200500002005000020050006A
:100E4000020050000200500002005000020050005A
:100E5000020050000200500002005000020050004A
:100E6000020050000200500002005000020050003A
:100E7000020050000200500002005000020050002A
:100E8000020050000200500002005000020050001A
:100E9000020050000200500002005000020050000A
:100EA00002005000020050000200500002005000FA
:080EB0000200500002158E0043
:1014E7007400F58690FB4A7C05A3E582458370F975
:1014F700227400F58690FFF37C05A3E5824583708F
:02150700F922C7
:0B08CB00482217EBAA550202003A0079
:10076D0090E680E04408F07FF47E011215097E00CA
:10077D007F147D007B007A00790812071F1212AAE0
:10078D001215F5902222E030E2097DFF7401FFFE83
:10079D0012160912152BC2AF120EB89021FEE4F0FD
:1007AD00A3740FF0120899704A7A2279007404121A
:1007BD0008B6703F902200E0641F7027A3E064EE3E
:1007CD007021A3E064FE701BA3E064ED70151208A8
:1007DD009970207A2079AB74801208B66015120ECC
:1007ED00B88010902222E030E0097D027F007E016A
:1007FD001216099020B3E0FFA3E09021D6CFF0A30D
:10080D00EFF09020B5E0FFA3E09021D8CFF0A3EF5B
:10081D00F09020B7E0FFA3E09021DACFF0A3EFF046
:10082D00120D4290E680E04402F0E054F7F012130E
:10083D0054D2AF90E65DE030E009120BC290E65D58
:10084D007401F090E65DE030E6037440F090E65DF3
:10085D00E030E40912166490E65D7410F090E65DE8
:10086D00E030E3037408F090E65FE030E009120039
:10087D004690E65F7401F090E65FE030E10912000A
:10088D000390E65F7402F012149680A77B017A2123
:10089D0079FE9022117402F0A37428F0C2007FA299
:1008AD001209F39021FDEFF0227B01902211F0A3AC
:0E08BD007428F07FA2120AFA9021FDEFF022BB
:1015AE005269676953797374656D73005553425070
:0D15BE00414C2028696E76616C696429003B
:100EB8007E007F807D007B017A2079AB12071F902E
:100EC80020AF7480F0A3E4F09020AB741FF0A374FB
:100ED800EEF0A374FEF0A374EDF09020B3742AF042
:100EE800A37415F07401A3F0A3F0A3E4F0A304F035
:100EF8007A1579AE120F3D7A1579AE90220712064F
:100F0800F07B017A2079C31210BC7A1579BA120FD6
:100F18003D7A1579BA9022071206F07B017A20797A
:100F2800E31210BC9020C27401F09021031206B69F
:100F380001000000227BFF1215E090220AEEF0A3C8
:050F4800EFF07BFF2229
:10162F003031323334353637383941424344454609
:01163F0000AA
:0508D600422221000098
:1015F50090E608E04402F075C040A2DFB3E4335240
:04160500D8C2C12264
:0C156E00EAFF121469AF031214697F2019
:10157A00EFB40A0875C10D30C1FDC2C18FC130C1B7
:04158A00FDC2C122BB
:10146900AE07EEC4540FFD7C00242FF582EC341630
:10147900F583E493FF12157AEE540FFD7E00242FB5
:0D148900F582EE3416F583E493FF02157A28
:10160900AB07AA06A90512156EAF011215757F0A57
:0316190002157A3D
:1014C20090221FEEF0A3EFF0AB05AA0490221FE0DA
:1014D200FF12146990221FA3E0FF12157512156EF8
:0514E2007F0A02157AEB
:01005000327D
:1015090090220DEEF0A3EFF090220DE07002A3E01F
:10151900600F1214E790220D74FFF5F012068A800D
:02152900E722B7
:10158E00C0E0C083C08290E6F574FFF0000000005A
:10159E005391BFF5A200000000D082D083D0E0327C
:10149600E5BB30E7FBE5AB20E12190E6ABE090E66B
:1014A600D0F00000000090E6ACE090E6D1F000003D
:0C14B6000000E4F5BB0000000080D5221F
:1012AA00538EF8E490E605F090E600E054E7441225
:1012BA00F075873075D840E490E608F0F5A8F5B8DF
:1012CA00F5E8F5A890E65CF090E65EF090E65AF054
:1012DA0090E662F090E650F090E652F090E654F014
:1012EA0090E656F090E660F075A1FF75A2FFF591C1
:0B12FA0090E6687403F0000000002282
:1013540090E6047480F000000000E51A540EF000DA
:10136400000000E4F00000000090E602F00000003D
:101374000090E603F000000000120C835391BF00BC
:1013840000000090E6617402F00000000090E66046
:0A139400F000000000D2EA0213D3BB
:10152B00E490E670F0F580F5B290E67174FFF0E4AC
:10153B00F5A075B4FF90E6727480F075B12875B69E
:02154B00B822C4
:0F16400090220E0206E7902213F0902222E02261
:07165D0090E67A7401F0220F
:060DFA00E490E67AF0220D
:0E164F0090E6787480F0E030E202C322D322ED
:10139E0090E6787440F09022157414F090E678E0A0
:1013AE0030E60B1214F8902215E014F070EE902235
:1013BE0015E07010902222E030E0097D157F007E4E
:0513CE000912160922BE
:10104D0090E679EFF09022157414F090E678E09028
:10105D002216F0E05405700B1214F8902215E014CE
:10106D00F070E8902215E0700E902222E030E0053D
:10107D007D151210B4C322902216E030E20E90229C
:10108D0022E030E0057D251210B4C322902216E037
:10109D0020E112902222E030E0097D247F007E09BC
:0F10AD00121609C322D3227F007E0912160922D0
:10118A0030030790E678E04420F090E679E0120612
:10119A00789022147414F090E678E0902215F0E02A
:1011AA005405700B1214F8902214E014F070E890B1
:1011BA002214E07012902222E030E0097D157F00AF
:1011CA007E09121609C322902215E030E2129022FB
:1011DA0022E030E0097D257F007E09121609C3222C
:0211EA00D3220E
:1009F30090220DEFF0A31206F0E412164630E7083A
:100A03009022117F02120AF2902222E030E70E12A6
:100A13001640120632FD7F027E0912160990222229
:100A2300E030E709121640900001120AE6902222F4
:100A3300E030E709121640900002120AE6902212F3
:100A4300E0B4280512165D8003120DFA12164F400A
:100A530013902222E030E0097D207F007E091216E8
:100A6300097F202290220DE0FF12104D400D7421CA
:100A730012164630E03D120AD98038E4902214F071
:100A8300902211E0FF902214E0C39F503D121640C4
:100A9300120632FF12104D401F742212164630E028
:100AA30003120AD9902222E030E0089022147F003A
:100AB300120AF212139E801890220FE475F00112AD
:100AC300068A902214E004F080B630000312139ECD
:100AD300902213E0FF22902213E0FD7F007E091293
:100AE30016092212064BFD7F027E0912160922E027
:070AF300FD7E091216092225
:100AFA0090220DEFF0A31206F0902222E030E708D0
:100B0A009022117F03120BBA902212E0B428051228
:100B1A00165D8003120DFA12164F4013902222E03E
:100B2A0030E0097D207F007E091216097F2022907D
:100B3A00220DE04401FF12104D400F902213742140
:100B4A00F0902222E030E05F803AD200C201902287
:100B5A0011E004F0E4902213F0902211E0FF6047C4
:100B6A00B40202D20190220E1206E7A201920312E7
:100B7A00118A92022002179022137423F0902222E3
:100B8A00E030E0239022137F00120BBA8019300064
:100B9A0004C200800A90220FE475F00112068A90BE
:100BAA002211E014F080B212139E902213E0FF2269
:080BBA00E0FD7E09121609227C
:09003A007E007D007B0002071F1F
:100DE4007F067A00791412003A7F027A00791A1287
:060DF400003A751A02220C
:100D4200902222E030E2097DFF7F017E0412160923
:100D5200C2E8C2EAE490E65AF090E65B74FDF0E481
:100D620090E658F090E659743FF0120DE4E490E6F4
:100D720010F00000000090E611F00000000090E684
:100D820012F00000000090E613F00000000090E670
:100D920014F00000000090E615F00000000090E65C
:100DA200047480F0000000007402F000000000747F
:100DB20004F0000000007406F0000000007408F067
:100DC20000000000E4F00000000090E65D747FF097
:100DD20090E65F74FFF0E490E65CF0D2F8D2E8D2DD
:020DE200EA2203
:1013D300E490E60BF00000000090E6127422F000A7
:1013E30000000012130590E6187410F000000000CE
:1013F300E490E650F00000000090E65174FFF00026
:0414030000000022C3
:05166400E4FF0215CBBC
:1013050090E618E054EFF00000000090E6047480C9
:10131500F000000000E51A540EF000000000E4F0B3
:1013250000000000E51A5480131313541FFFE51A3B
:10133500540F4F90E683F000000000E04420F000D9
:0F13450000000090E618E04410F00000000022C5
:1015CB00AE07121305EE90E6127005E0547FF02281
:0515DB00E04480F02255
:1008DB005221CE12010002FF000040000000000078
:1008EB0000010203015921AB09021900010100802B
:1008FB00320904000001FF0000000705020240005E
:10090B00005921E0090219000101008001090400CE
:10091B000001FF000000070502020002004A21C48B
:10092B000A060002FF00004001004421F9040309FC
:01093B0004B7
:10124B00902204E475F0011206A085F082F583224A
:10125B007A21792B75150175162175172B22751CA3
:10126B0000751D19AE1CAF1D782B7C217D017B01F8
:10127B002214F5828A83EFF00DEDAE0422C3E5193B
:10128B009FF519E5189EF5182290E6A0E04401F0B1
:0F129B00E04480F0222517F517EE3516F51622E0
:101407009022047421F0A3742DF08F828E83E06004
:101417001D0FEF70010E14F582E0FD12124BEDF077
:1014270012124BE4F090212BE02402F080DC902193
:041437002BE0FF2285
:10161C00EF540FFFD39409EF50052430FF800324BF
:03162C0037FF2263
:10112400902204EEF0A3EFF0A9057E217D2D7C2111
:10113400E9604D90220412124EE0902206F019E06C
:10114400C4540FFF12161C0DEDAA0470010C1212E8
:101154007C70010C14F5828E83E4F0902206E0FF8B
:1011640012161C0DEDAA0470010C12127C70010CF5
:1011740014F5828E83E4F090212BE02404F080B0F7
:0611840090212BE0FF2288
:10143B0090212B7402F0A304F0EF24FE600D1460D6
:10144B0011240270167E207FC380047E207FE3026E
:0E145B0014077E207FBB7D080211247F002233
:10005600902222E030E409AD0D7F027E05121609DA
:10006600E50D1206F9008A0000E90101330302DBFF
:1000760005019906025C0802770902B70A029A0B83
:10008600000002D8E5136402451260030202D87527
:100096001800751902E490212BF0A3F0E50C541F0B
:1000A60014602F1460152402703090212BE0F0E5C7
:1000B6000B70030202DBE04402F022E51124FE701D
:1000C60019E51BB404047F0180027F0090212BEF09
:1000D600F022E490212BF0A3F022751404E4F51825
:1000E600F51922E513451260030202D8E50C541FE8
:1000F60024FE601124027032E50F640160030202DF
:10010600D8E4F50B22E50F60030202D8E51124FEC0
:10011600701512130590E6A3E054FEF090E612E087
:100126004480F0E4F51B220202D80202D8E513450A
:100136001260030202D8E50C541F24FE601124024B
:10014600704EE50F24FE70030202DB040202D8E5BE
:100156000F60030202D8E51124FE703190E612E02A
:10016600547FF090E6A3E04401F0E51A548013139F
:1001760013541FFFE51A540F4F90E683F00000005A
:1001860000E04420F000000000751B04220202D8A3
:100196000202D8E50E24FE601C14603E24FD606752
:1001A6001460752406600302024075150175162158
:1001B6007517CE801CE50F704CE508600B751501B0
:1001C6007516217517E080097515017516217517C5
:1001D600AB751C00751D19020243E50F1424FD5072
:1001E60015240470207515017516217517F9751CEF
:1001F60000751D04804712125BAF0F12143B751C6D
:10020600008F1D803880337515017516217517C44A
:10021600751C00751D0A8025E50860091212697AA9
:100226002179AB80071212697A2179E012060C90C7
:10023600212C7407F012125F8003751404C3E513B2
:10024600951DE512951C50078512188513192285F0
:100256001C18851D1922E513640145127006E50C6C
:1002660064806002806C90212BE509F0751800808F
:100276005DE51345127004E50C60028055E50F1428
:10028600600804700DE4F5098003750901AF0902E1
:1002960015CB803EE51345127006E50C640160023D
:1002A6008030E5097002802AE5116002802402137D
:1002B60005E513640145127006E50C648160028051
:1002C60011E5116002800BE490212BF0F5187519E9
:0602D60001227514042250
:1011EC00E5BA20E0599022047440F0E0FFD3E519F1
:1011FC009FE51894005006E519F0E4F514902204CC
:10120C00E0FFD39400401E7E0078407CE77D01AB6C
:10121C0015AA16A91712060C902204E0FF7E0012E4
:10122C0012A012128800000000E490E68AF0000080
:0F123C000000902204E090E68BF00000000022FA
:100BC20090E6B8E0F50CA3E0F50DA3E0F50FA3E085
:100BD200F50EA3E0F511A3E0F51090E6BFE0FC905E
:100BE200E6BEE0FFECF512EFF513902222E030E4CE
:100BF20009AD0C7F017E0512160990E680E030E710
:100C0200057508018003E4F508E4F514F518F519F3
:100C120012125BD3E5139400E51294004013E50C25
:100C220030E70575140280098512188513197514A9
:100C320003E50C546024C060092440700A12005677
:100C420080081202DC8003751404E51424FD600C94
:100C5200146019240270181211EC801300000000B5
:100C620090E68B7480F0000000008003121294E57D
:100C72001464026004E514700790E6A0E04480F07A
:010C8200224F
:0A004600E51424FE70031211EC22F1
:100FD9000000000090E68BE0902204F00000000081
:100FE900E0FFC394405003751401EFD394004046C9
:100FF900E5199FE51894005010751404E4F518F5E7
:1010090019902204E519F0802D902204E0FF7E005A
:10101900A817AC16AD157B017AE7794012060C903A
:101029002204E0FF7E00121288EF1212A0E5194592
:1010390018700375140100000000E490E68BF000BD
:041049000000002281
:10000300E51424FD7015120FD9E514B40110E50CA5
:10001300546024C070051202DC8003751404E514D7
:1000230024FC600F2403700E90E6A0E04480F0E40B
:07003300F5142212129422C1
:10154D00751404902222E022D3902205E09400909D
:10155D002204E09400229022047401F0A374F4F0AC
:01156D00225B
:1002DC00902222E030E405AD0C120534902222E08D
:1002EC0030E405AD0D120534E50C541F6003020417
:1002FC00F7E50C20E7030203DCE50D24FE60471450
:10030C00602824F3606E240F60030203D0E51364AD
:10031C0008451260030204F775150175162275174E
:10032C00177518007519080203C0E513648045128F
:10033C0060030204F77515017516207517AB751857
:10034C0000751980806EE513640145126003020488
:10035C00F7E5B130E207E490212BF0800690212BD9
:10036C007401F075150175162175172B751800752C
:10037C00190180407B007A0079109022117402F0F0
:10038C00A37428F0C2007FA21209F3902204EFF0AC
:10039C007026AB15AA16A917902211E513F0A374B9
:1003AC0028F07FA2120AFA902204EFF0700A85124C
:1003BC00188513197514022212154D20E00302053D
:1003CC000A02045F12154D20E00302050A02050122
:1003DC00E50D24FC605E24FC700302048F14700392
:1003EC000204CA24F860030204FBE514B40314905D
:1003FC00212BE510F0A3E511F0751501751621758B
:10040C00172D227B017A21792BE5132402902211DE
:10041C00F0A37428F0D2007FA21209F3902204EF0B
:10042C00F0E0FD700302050A12154D20E0030205F1
:10043C000A0205037E007F087D007B017A22790584
:10044C0012071F12050BEFF0601112154D20E0037F
:10045C0002050A902204E0FD0205037F147E0012BF
:10046C001509902206740FF012050BEFF0700302C1
:10047C00050A12154D20E00302050A902204E0FD46
:10048C0002050312156353B1EF1214E743B11012B6
:10049C001555400AE58020E50512052680F19022CD
:1004AC0004E07002A3E07012902222E030E0097D9B
:1004BC00157F027E06121609803153B1F7221215F0
:1004CC0063E5B120E20812052612155550F343B12D
:1004DC0008902204E07002A3E07023902222E03006
:1004EC00E0097D157F037E0612160975140422128D
:1004FC00154D30E009AD0D7F017E06121609227BE9
:10050C00017A2279059022117408F0A37428F0D294
:10051C00007FA21209F3902204221214E790220405
:10052C0074FFF5F012068A227F017E06121609224C
:10093C00608020000138010101010107020500005F
:10094C00000000000002020202020202002D000060
:10095C000000003F01100101010101070205000028
:10096C00000000000002020202020202002D000040
:10097C000000003F013801010101010702050000E0
:10098C00000000000002020202020202002D000020
:10099C000000003F013801010101010702050000C0
:1009AC00000000000002020202020202002D000000
:1009BC000000003F602420870000000000000000C1
:1009CC00000000000000000000000000000000001B
:1009DC00000000000000000000000000472080E044
:0609EC00000002BAE40065
:100C830090E60174BAF090E6F574FFF0902080E0EE
:100C930090E6F3F0902081E090E6C3F0902082E0AC
:100CA30090E6C1F0902083E090E6C2F0902085E0CA
:100CB30090E6C0F0902086E090E6F4F075AF0774FC
:100CC30020F59A7400F59B759DE4E4F59EFF90E68C
:100CD3007BE090E67CF00FEFB480F390E67174FF55
:100CE300F0F5B490E672E04480F043B68000000073
:100CF30000E490E6C4F00000000090E6C5F0902008
:100D030087E090E6C6F0902088E090E6C7F0902058
:100D130089E090E6C8F090208AE090E6C9F0902040
:100D23008BE090E6CAF090208CE090E6CBF0902028
:0F0D33008DE090E6CCF090208EE090E6CDF0229F
:100F590002076DE493A3F8E493A34003F68001F23A
:100F690008DFF48029E493A3F85407240CC8C33399
:100F7900C4540F4420C8834004F456800146F6DF68
:100F8900E4800B01020408102040809008CBE47E25
:100F9900019360BCA3FF543F30E509541FFEE4935D
:100FA900A360010ECF54C025E060A840B8E493A324
:100FB900FAE493A3F8E493A3C8C582C8CAC583CA4F
:100FC900F0A3C8C582C8CAC583CADFE9DEE780BE07
:0109F2000004
:10053C00E709F608DFFA8046E709F208DFFA803EA1
:10054C0088828C83E709F0A3DFFA8032E309F6088E
:10055C00DFFA8078E309F208DFFA807088828C83F6
:10056C00E309F0A3DFFA806489828A83E0A3F608AA
:10057C00DFFA805889828A83E0A3F208DFFA804C84
:10058C0080D280FA80C680D4806980F2803380105B
:10059C0080A680EA809A80A880DA80E280CA8033C4
:1005AC0089828A83ECFAE493A3C8C582C8CCC5833C
:1005BC00CCF0A3C8C582C8CCC583CCDFE9DEE7800C
:1005CC000D89828A83E493A3F608DFF9ECFAA9F08B
:1005DC00EDFB2289828A83ECFAE0A3C8C582C8CCE1
:1005EC00C583CCF0A3C8C582C8CCC583CCDFEADEFA
:1005FC00E880DB89828A83E493A3F208DFF980CC5C
:10060C0088F0EF60010E4E60C388F0ED2402B40454
:10061C000050B9F582EB2402B4040050AF232345FB
:06062C00822390058C738F
:10063200BB010689828A83E0225002E722BBFE02C6
:09064200E32289828A83E49322F9
:10064B00BB010CE58229F582E5833AF583E0225064
:10065B0006E92582F8E622BBFE06E92582F8E222AE
:0D066B00E58229F582E5833AF583E49322C8
:10067800BB010689828A83F0225002F722BBFE0161
:02068800F3225B
:10068A00C5F0F8A3E028F0C5F0F8E58215827002FB
:06069A001583E038F02298
:1006A000A3F8E0C5F025F0F0E5821582700215830D
:0606B000E0C838F0E8226A
:1006B600A8828583F0D083D0821206CD1206CD1291
:1006C60006CD1206CDE473E493A3C583C5F0C583B6
:1006D600C8C582C8F0A3C583C5F0C583C8C582C88E
:0106E60022F1
:0906E700E0FBA3E0FAA3E0F92214
:0906F000EBF0A3EAF0A3E9F0220B
:1006F900D083D082F8E4937012740193700DA3A390
:1007090093F8740193F5828883E4737402936860A3
:06071900EFA3A3A380DFA3
:1010BC00902204EBF0A3EAF0A3E9F0E490220CF008
:1010CC00A3F090220A74FFF5F01206A045F0603CE4
:1010DC00902207E0FBA3E0FAA3E0F9120632FF909E
:1010EC002204E0FBA3E0FAA3E0F990220CE475F0F3
:1010FC00011206A085F082F583EF12074BEF60C258
:10110C00902208E475F00112068A80B6902204E061
:08111C00FBA3E0FAA3E0F922B5
:1015E000E4FFFE120632600C0FEF70010E09E97085
:0515F000F20A80EF2269
:10071F00EF4E6012EF60010EEDBB010B89828A83F1
:10072F00F0A3DFFCDEFA2289F05007F709DFFCA9FE
:0C073F00F022BBFEFCF309DFFCA9F02255
:10074B00F8BB010DE58229F582E5833AF583E8F0E4
:10075B00225006E92582C8F622BBFE05E92582C890
:02076B00F22278
:00000001FF
